{
  "_format": "hh-sol-artifact-1",
  "contractName": "TimeLock",
  "sourceName": "Contracts/TimeLock.sol",
  "abi": [
    {
      "inputs": [
        {
          "internalType": "address",
          "name": "_beneficiary",
          "type": "address"
        },
        {
          "internalType": "uint256",
          "name": "_unlockTime",
          "type": "uint256"
        }
      ],
      "stateMutability": "payable",
      "type": "constructor"
    },
    {
      "inputs": [],
      "name": "NothingToWithdraw",
      "type": "error"
    },
    {
      "inputs": [
        {
          "internalType": "uint256",
          "name": "currentTime",
          "type": "uint256"
        },
        {
          "internalType": "uint256",
          "name": "unlockTime",
          "type": "uint256"
        }
      ],
      "name": "TooEarly",
      "type": "error"
    },
    {
      "inputs": [],
      "name": "balance",
      "outputs": [
        {
          "internalType": "uint256",
          "name": "",
          "type": "uint256"
        }
      ],
      "stateMutability": "view",
      "type": "function"
    },
    {
      "inputs": [],
      "name": "beneficiary",
      "outputs": [
        {
          "internalType": "address",
          "name": "",
          "type": "address"
        }
      ],
      "stateMutability": "view",
      "type": "function"
    },
    {
      "inputs": [],
      "name": "unlockTime",
      "outputs": [
        {
          "internalType": "uint256",
          "name": "",
          "type": "uint256"
        }
      ],
      "stateMutability": "view",
      "type": "function"
    },
    {
      "inputs": [],
      "name": "withdraw",
      "outputs": [],
      "stateMutability": "nonpayable",
      "type": "function"
    }
  ],
  "bytecode": "0x608060405260405161043638038061043683398181016040528101906100259190610113565b816000806101000a81548173ffffffffffffffffffffffffffffffffffffffff021916908373ffffffffffffffffffffffffffffffffffffffff16021790555080600181905550346002819055505050610153565b600080fd5b600073ffffffffffffffffffffffffffffffffffffffff82169050919050565b60006100aa8261007f565b9050919050565b6100ba8161009f565b81146100c557600080fd5b50565b6000815190506100d7816100b1565b92915050565b6000819050919050565b6100f0816100dd565b81146100fb57600080fd5b50565b60008151905061010d816100e7565b92915050565b6000806040838503121561012a5761012961007a565b5b6000610138858286016100c8565b9250506020610149858286016100fe565b9150509250929050565b6102d4806101626000396000f3fe608060405234801561001057600080fd5b506004361061004c5760003560e01c8063251c1aa31461005157806338af3eed1461006f5780633ccfd60b1461008d578063b69ef8a814610097575b600080fd5b6100596100b5565b60405161006691906101fe565b60405180910390f35b6100776100bb565b604051610084919061025a565b60405180910390f35b6100956100df565b005b61009f6101df565b6040516100ac91906101fe565b60405180910390f35b60015481565b60008054906101000a900473ffffffffffffffffffffffffffffffffffffffff1681565b60006002540361011b576040517fd0d04f6000000000000000000000000000000000000000000000000000000000815260040160405180910390fd5b60015442101561016657426001546040517fe58369d100000000000000000000000000000000000000000000000000000000815260040161015d929190610275565b60405180910390fd5b60006002549050600060028190555060008054906101000a900473ffffffffffffffffffffffffffffffffffffffff1673ffffffffffffffffffffffffffffffffffffffff166108fc829081150290604051600060405180830381858888f193505050501580156101db573d6000803e3d6000fd5b5050565b60025481565b6000819050919050565b6101f8816101e5565b82525050565b600060208201905061021360008301846101ef565b92915050565b600073ffffffffffffffffffffffffffffffffffffffff82169050919050565b600061024482610219565b9050919050565b61025481610239565b82525050565b600060208201905061026f600083018461024b565b92915050565b600060408201905061028a60008301856101ef565b61029760208301846101ef565b939250505056fea2646970667358221220191cb847bc9c0b4bb3cd47eddfbe2fb34cf0ca0e0e3e2ac2b7b89206984f7fa164736f6c634300081c0033",
  "linkReferences": {},
  "deployedLinkReferences": {}
}