{
  "_format": "hh-sol-artifact-1",
  "contractName": "RewardToken",
  "sourceName": "Contracts/RewardToken.sol",
  "abi": [
    {
      "inputs": [],
      "stateMutability": "nonpayable",
      "type": "constructor"
    },
    {
      "inputs": [],
      "name": "NotVault",
      "type": "error"
    },
    {
      "inputs": [
        {
          "internalType": "address",
          "name": "",
          "type": "address"
        }
      ],
      "name": "balanceOf",
      "outputs": [
        {
          "internalType": "uint256",
          "name": "",
          "type": "uint256"
        }
      ],
      "stateMutability": "view",
      "type": "function"
    },
    {
      "inputs": [],
      "name": "decimals",
      "outputs": [
        {
          "internalType": "uint8",
          "name": "",
          "type": "uint8"
        }
      ],
      "stateMutability": "view",
      "type": "function"
    },
    {
      "inputs": [
        {
          "internalType": "address",
          "name": "to",
          "type": "address"
        },
        {
          "internalType": "uint256",
          "name": "amount",
          "type": "uint256"
        }
      ],
      "name": "mint",
      "outputs": [],
      "stateMutability": "nonpayable",
      "type": "function"
    },
    {
      "inputs": [],
      "name": "name",
      "outputs": [
        {
          "internalType": "string",
          "name": "",
          "type": "string"
        }
      ],
      "stateMutability": "view",
      "type": "function"
    },
    {
      "inputs": [],
      "name": "symbol",
      "outputs": [
        {
          "internalType": "string",
          "name": "",
          "type": "string"
        }
      ],
      "stateMutability": "view",
      "type": "function"
    },
    {
      "inputs": [],
      "name": "vault",
      "outputs": [
        {
          "internalType": "address",
          "name": "",
          "type": "address"
        }
      ],
      "stateMutability": "view",
      "type": "function"
    }
  ],
  "bytecode": "0x60806040526040518060400160405280600b81526020017f526577617264546f6b656e00000000000000000000000000000000000000000081525060009081610048919061034d565b506040518060400160405280600381526020017f52574400000000000000000000000000000000000000000000000000000000008152506001908161008d919061034d565b506012600260006101000a81548160ff021916908360ff1602179055503480156100b657600080fd5b5033600460006101000a81548173ffffffffffffffffffffffffffffffffffffffff021916908373ffffffffffffffffffffffffffffffffffffffff16021790555061041f565b600081519050919050565b7f4e487b7100000000000000000000000000000000000000000000000000000000600052604160045260246000fd5b7f4e487b7100000000000000000000000000000000000000000000000000000000600052602260045260246000fd5b6000600282049050600182168061017e57607f821691505b60208210810361019157610190610137565b5b50919050565b60008190508160005260206000209050919050565b60006020601f8301049050919050565b600082821b905092915050565b6000600883026101f97fffffffffffffffffffffffffffffffffffffffffffffffffffffffffffffffff826101bc565b61020386836101bc565b95508019841693508086168417925050509392505050565b6000819050919050565b6000819050919050565b600061024a6102456102408461021b565b610225565b61021b565b9050919050565b6000819050919050565b6102648361022f565b61027861027082610251565b8484546101c9565b825550505050565b600090565b61028d610280565b61029881848461025b565b505050565b5b818110156102bc576102b1600082610285565b60018101905061029e565b5050565b601f821115610301576102d281610197565b6102db846101ac565b810160208510156102ea578190505b6102fe6102f6856101ac565b83018261029d565b50505b505050565b600082821c905092915050565b600061032460001984600802610306565b1980831691505092915050565b600061033d8383610313565b9150826002028217905092915050565b610356826100fd565b67ffffffffffffffff81111561036f5761036e610108565b5b6103798254610166565b6103848282856102c0565b600060209050601f8311600181146103b757600084156103a5578287015190505b6103af8582610331565b865550610417565b601f1984166103c586610197565b60005b828110156103ed578489015182556001820191506020850194506020810190506103c8565b8683101561040a5784890151610406601f891682610313565b8355505b6001600288020188555050505b505050505050565b6106b58061042e6000396000f3fe608060405234801561001057600080fd5b50600436106100625760003560e01c806306fdde0314610067578063313ce5671461008557806340c10f19146100a357806370a08231146100bf57806395d89b41146100ef578063fbfa77cf1461010d575b600080fd5b61006f61012b565b60405161007c9190610409565b60405180910390f35b61008d6101b9565b60405161009a9190610447565b60405180910390f35b6100bd60048036038101906100b891906104fb565b6101cc565b005b6100d960048036038101906100d4919061053b565b6102ad565b6040516100e69190610577565b60405180910390f35b6100f76102c5565b6040516101049190610409565b60405180910390f35b610115610353565b60405161012291906105a1565b60405180910390f35b60008054610138906105eb565b80601f0160208091040260200160405190810160405280929190818152602001828054610164906105eb565b80156101b15780601f10610186576101008083540402835291602001916101b1565b820191906000526020600020905b81548152906001019060200180831161019457829003601f168201915b505050505081565b600260009054906101000a900460ff1681565b600460009054906101000a900473ffffffffffffffffffffffffffffffffffffffff1673ffffffffffffffffffffffffffffffffffffffff163373ffffffffffffffffffffffffffffffffffffffff1614610253576040517f62df054500000000000000000000000000000000000000000000000000000000815260040160405180910390fd5b80600360008473ffffffffffffffffffffffffffffffffffffffff1673ffffffffffffffffffffffffffffffffffffffff16815260200190815260200160002060008282546102a2919061064b565b925050819055505050565b60036020528060005260406000206000915090505481565b600180546102d2906105eb565b80601f01602080910402602001604051908101604052809291908181526020018280546102fe906105eb565b801561034b5780601f106103205761010080835404028352916020019161034b565b820191906000526020600020905b81548152906001019060200180831161032e57829003601f168201915b505050505081565b600460009054906101000a900473ffffffffffffffffffffffffffffffffffffffff1681565b600081519050919050565b600082825260208201905092915050565b60005b838110156103b3578082015181840152602081019050610398565b60008484015250505050565b6000601f19601f8301169050919050565b60006103db82610379565b6103e58185610384565b93506103f5818560208601610395565b6103fe816103bf565b840191505092915050565b6000602082019050818103600083015261042381846103d0565b905092915050565b600060ff82169050919050565b6104418161042b565b82525050565b600060208201905061045c6000830184610438565b92915050565b600080fd5b600073ffffffffffffffffffffffffffffffffffffffff82169050919050565b600061049282610467565b9050919050565b6104a281610487565b81146104ad57600080fd5b50565b6000813590506104bf81610499565b92915050565b6000819050919050565b6104d8816104c5565b81146104e357600080fd5b50565b6000813590506104f5816104cf565b92915050565b6000806040838503121561051257610511610462565b5b6000610520858286016104b0565b9250506020610531858286016104e6565b9150509250929050565b60006020828403121561055157610550610462565b5b600061055f848285016104b0565b91505092915050565b610571816104c5565b82525050565b600060208201905061058c6000830184610568565b92915050565b61059b81610487565b82525050565b60006020820190506105b66000830184610592565b92915050565b7f4e487b7100000000000000000000000000000000000000000000000000000000600052602260045260246000fd5b6000600282049050600182168061060357607f821691505b602082108103610616576106156105bc565b5b50919050565b7f4e487b7100000000000000000000000000000000000000000000000000000000600052601160045260246000fd5b6000610656826104c5565b9150610661836104c5565b92508282019050808211156106795761067861061c565b5b9291505056fea26469706673582212207d0aad247f0f4f26579b9770d1b2b9b539dfbfc2b3f974d7d4022a4a17d5ed0964736f6c634300081c0033",
  "linkReferences": {},
  "deployedLinkReferences": {}
}