{
  "_format": "hh-sol-artifact-1",
  "contractName": "StakingVault",
  "sourceName": "Contracts/StakingVault.sol",
  "abi": [
    {
      "inputs": [],
      "stateMutability": "nonpayable",
      "type": "constructor"
    },
    {
      "inputs": [],
      "name": "NothingStaked",
      "type": "error"
    },
    {
      "inputs": [],
      "name": "stake",
      "outputs": [],
      "stateMutability": "payable",
      "type": "function"
    },
    {
      "inputs": [
        {
          "internalType": "address",
          "name": "",
          "type": "address"
        }
      ],
      "name": "stakes",
      "outputs": [
        {
          "internalType": "uint256",
          "name": "",
          "type": "uint256"
        }
      ],
      "stateMutability": "view",
      "type": "function"
    },
    {
      "inputs": [],
      "name": "token",
      "outputs": [
        {
          "internalType": "contract RewardToken",
          "name": "",
          "type": "address"
        }
      ],
      "stateMutability": "view",
      "type": "function"
    },
    {
      "inputs": [],
      "name": "withdraw",
      "outputs": [],
      "stateMutability": "nonpayable",
      "type": "function"
    }
  ],
  "bytecode": "0x6080604052348015600f57600080fd5b50604051601a906079565b604051809103906000f0801580156035573d6000803e3d6000fd5b506000806101000a81548173ffffffffffffffffffffffffffffffffffffffff021916908373ffffffffffffffffffffffffffffffffffffffff1602179055506086565b610ae38061060b83390190565b610576806100956000396000f3fe60806040526004361061003f5760003560e01c806316934fc4146100445780633a4b66f1146100815780633ccfd60b1461008b578063fc0c546a146100a2575b600080fd5b34801561005057600080fd5b5061006b6004803603810190610066919061036a565b6100cd565b60405161007891906103b0565b60405180910390f35b6100896100e5565b005b34801561009757600080fd5b506100a061013d565b005b3480156100ae57600080fd5b506100b76102e3565b6040516100c4919061042a565b60405180910390f35b60016020528060005260406000206000915090505481565b34600160003373ffffffffffffffffffffffffffffffffffffffff1673ffffffffffffffffffffffffffffffffffffffff16815260200190815260200160002060008282546101349190610474565b92505081905550565b6000600160003373ffffffffffffffffffffffffffffffffffffffff1673ffffffffffffffffffffffffffffffffffffffff168152602001908152602001600020549050600081036101bb576040517f9fe7bfd900000000000000000000000000000000000000000000000000000000815260040160405180910390fd5b6000600160003373ffffffffffffffffffffffffffffffffffffffff1673ffffffffffffffffffffffffffffffffffffffff1681526020019081526020016000208190555060008054906101000a900473ffffffffffffffffffffffffffffffffffffffff1673ffffffffffffffffffffffffffffffffffffffff166340c10f1933600a8461024a91906104d7565b6040518363ffffffff1660e01b8152600401610267929190610517565b600060405180830381600087803b15801561028157600080fd5b505af1158015610295573d6000803e3d6000fd5b505050503373ffffffffffffffffffffffffffffffffffffffff166108fc829081150290604051600060405180830381858888f193505050501580156102df573d6000803e3d6000fd5b5050565b60008054906101000a900473ffffffffffffffffffffffffffffffffffffffff1681565b600080fd5b600073ffffffffffffffffffffffffffffffffffffffff82169050919050565b60006103378261030c565b9050919050565b6103478161032c565b811461035257600080fd5b50565b6000813590506103648161033e565b92915050565b6000602082840312156103805761037f610307565b5b600061038e84828501610355565b91505092915050565b6000819050919050565b6103aa81610397565b82525050565b60006020820190506103c560008301846103a1565b92915050565b6000819050919050565b60006103f06103eb6103e68461030c565b6103cb565b61030c565b9050919050565b6000610402826103d5565b9050919050565b6000610414826103f7565b9050919050565b61042481610409565b82525050565b600060208201905061043f600083018461041b565b92915050565b7f4e487b7100000000000000000000000000000000000000000000000000000000600052601160045260246000fd5b600061047f82610397565b915061048a83610397565b92508282019050808211156104a2576104a1610445565b5b92915050565b7f4e487b7100000000000000000000000000000000000000000000000000000000600052601260045260246000fd5b60006104e282610397565b91506104ed83610397565b9250826104fd576104fc6104a8565b5b828204905092915050565b6105118161032c565b82525050565b600060408201905061052c6000830185610508565b61053960208301846103a1565b939250505056fea26469706673582212209d966bf1a2239a1b12a803a6a0acb6dfac95372cae13b0b5a5da3a398de527b964736f6c634300081c003360806040526040518060400160405280600b81526020017f526577617264546f6b656e00000000000000000000000000000000000000000081525060009081610048919061034d565b506040518060400160405280600381526020017f52574400000000000000000000000000000000000000000000000000000000008152506001908161008d919061034d565b506012600260006101000a81548160ff021916908360ff1602179055503480156100b657600080fd5b5033600460006101000a81548173ffffffffffffffffffffffffffffffffffffffff021916908373ffffffffffffffffffffffffffffffffffffffff16021790555061041f565b600081519050919050565b7f4e487b7100000000000000000000000000000000000000000000000000000000600052604160045260246000fd5b7f4e487b7100000000000000000000000000000000000000000000000000000000600052602260045260246000fd5b6000600282049050600182168061017e57607f821691505b60208210810361019157610190610137565b5b50919050565b60008190508160005260206000209050919050565b60006020601f8301049050919050565b600082821b905092915050565b6000600883026101f97fffffffffffffffffffffffffffffffffffffffffffffffffffffffffffffffff826101bc565b61020386836101bc565b95508019841693508086168417925050509392505050565b6000819050919050565b6000819050919050565b600061024a6102456102408461021b565b610225565b61021b565b9050919050565b6000819050919050565b6102648361022f565b61027861027082610251565b8484546101c9565b825550505050565b600090565b61028d610280565b61029881848461025b565b505050565b5b818110156102bc576102b1600082610285565b60018101905061029e565b5050565b601f821115610301576102d281610197565b6102db846101ac565b810160208510156102ea578190505b6102fe6102f6856101ac565b83018261029d565b50505b505050565b600082821c905092915050565b600061032460001984600802610306565b1980831691505092915050565b600061033d8383610313565b9150826002028217905092915050565b610356826100fd565b67ffffffffffffffff81111561036f5761036e610108565b5b6103798254610166565b6103848282856102c0565b600060209050601f8311600181146103b757600084156103a5578287015190505b6103af8582610331565b865550610417565b601f1984166103c586610197565b60005b828110156103ed578489015182556001820191506020850194506020810190506103c8565b8683101561040a5784890151610406601f891682610313565b8355505b6001600288020188555050505b505050505050565b6106b58061042e6000396000f3fe608060405234801561001057600080fd5b50600436106100625760003560e01c806306fdde0314610067578063313ce5671461008557806340c10f19146100a357806370a08231146100bf57806395d89b41146100ef578063fbfa77cf1461010d575b600080fd5b61006f61012b565b60405161007c9190610409565b60405180910390f35b61008d6101b9565b60405161009a9190610447565b60405180910390f35b6100bd60048036038101906100b891906104fb565b6101cc565b005b6100d960048036038101906100d4919061053b565b6102ad565b6040516100e69190610577565b60405180910390f35b6100f76102c5565b6040516101049190610409565b60405180910390f35b610115610353565b60405161012291906105a1565b60405180910390f35b60008054610138906105eb565b80601f0160208091040260200160405190810160405280929190818152602001828054610164906105eb565b80156101b15780601f10610186576101008083540402835291602001916101b1565b820191906000526020600020905b81548152906001019060200180831161019457829003601f168201915b505050505081565b600260009054906101000a900460ff1681565b600460009054906101000a900473ffffffffffffffffffffffffffffffffffffffff1673ffffffffffffffffffffffffffffffffffffffff163373ffffffffffffffffffffffffffffffffffffffff1614610253576040517f62df054500000000000000000000000000000000000000000000000000000000815260040160405180910390fd5b80600360008473ffffffffffffffffffffffffffffffffffffffff1673ffffffffffffffffffffffffffffffffffffffff16815260200190815260200160002060008282546102a2919061064b565b925050819055505050565b60036020528060005260406000206000915090505481565b600180546102d2906105eb565b80601f01602080910402602001604051908101604052809291908181526020018280546102fe906105eb565b801561034b5780601f106103205761010080835404028352916020019161034b565b820191906000526020600020905b81548152906001019060200180831161032e57829003601f168201915b505050505081565b600460009054906101000a900473ffffffffffffffffffffffffffffffffffffffff1681565b600081519050919050565b600082825260208201905092915050565b60005b838110156103b3578082015181840152602081019050610398565b60008484015250505050565b6000601f19601f8301169050919050565b60006103db82610379565b6103e58185610384565b93506103f5818560208601610395565b6103fe816103bf565b840191505092915050565b6000602082019050818103600083015261042381846103d0565b905092915050565b600060ff82169050919050565b6104418161042b565b82525050565b600060208201905061045c6000830184610438565b92915050565b600080fd5b600073ffffffffffffffffffffffffffffffffffffffff82169050919050565b600061049282610467565b9050919050565b6104a281610487565b81146104ad57600080fd5b50565b6000813590506104bf81610499565b92915050565b6000819050919050565b6104d8816104c5565b81146104e357600080fd5b50565b6000813590506104f5816104cf565b92915050565b6000806040838503121561051257610511610462565b5b6000610520858286016104b0565b9250506020610531858286016104e6565b9150509250929050565b60006020828403121561055157610550610462565b5b600061055f848285016104b0565b91505092915050565b610571816104c5565b82525050565b600060208201905061058c6000830184610568565b92915050565b61059b81610487565b82525050565b60006020820190506105b66000830184610592565b92915050565b7f4e487b7100000000000000000000000000000000000000000000000000000000600052602260045260246000fd5b6000600282049050600182168061060357607f821691505b602082108103610616576106156105bc565b5b50919050565b7f4e487b7100000000000000000000000000000000000000000000000000000000600052601160045260246000fd5b6000610656826104c5565b9150610661836104c5565b92508282019050808211156106795761067861061c565b5b9291505056fea26469706673582212207d0aad247f0f4f26579b9770d1b2b9b539dfbfc2b3f974d7d4022a4a17d5ed0964736f6c634300081c0033",
  "linkReferences": {},
  "deployedLinkReferences": {}
}