{
  "_format": "hh-sol-artifact-1",
  "contractName": "SimpleStorage",
  "sourceName": "Contracts/SimpleStorage.sol",
  "abi": [
    {
      "inputs": [],
      "name": "get",
      "outputs": [
        {
          "internalType": "uint256",
          "name": "",
          "type": "uint256"
        }
      ],
      "stateMutability": "view",
      "type": "function"
    },
    {
      "inputs": [
        {
          "internalType": "uint256",
          "name": "_value",
          "type": "uint256"
        }
      ],
      "name": "initialize",
      "outputs": [],
      "stateMutability": "nonpayable",
      "type": "function"
    },
    {
      "inputs": [],
      "name": "isInitialized",
      "outputs": [
        {
          "internalType": "bool",
          "name": "",
          "type": "bool"
        }
      ],
      "stateMutability": "view",
      "type": "function"
    },
    {
      "inputs": [
        {
          "internalType": "uint256",
          "name": "_value",
          "type": "uint256"
        }
      ],
      "name": "set",
      "outputs": [],
      "stateMutability": "nonpayable",
      "type": "function"
    }
  ],
  "bytecode": "0x6080604052348015600f57600080fd5b506103998061001f6000396000f3fe608060405234801561001057600080fd5b506004361061004c5760003560e01c8063392e53cd1461005157806360fe47b11461006f5780636d4ce63c1461008b578063fe4b84df146100a9575b600080fd5b6100596100c5565b60405161006691906101cd565b60405180910390f35b61008960048036038101906100849190610223565b6100dc565b005b610093610135565b6040516100a0919061025f565b60405180910390f35b6100c360048036038101906100be9190610223565b61013e565b005b6000600160009054906101000a900460ff16905090565b600160009054906101000a900460ff1661012b576040517f08c379a0000000000000000000000000000000000000000000000000000000008152600401610122906102d7565b60405180910390fd5b8060008190555050565b60008054905090565b600160009054906101000a900460ff161561018e576040517f08c379a000000000000000000000000000000000000000000000000000000000815260040161018590610343565b60405180910390fd5b8060008190555060018060006101000a81548160ff02191690831515021790555050565b60008115159050919050565b6101c7816101b2565b82525050565b60006020820190506101e260008301846101be565b92915050565b600080fd5b6000819050919050565b610200816101ed565b811461020b57600080fd5b50565b60008135905061021d816101f7565b92915050565b600060208284031215610239576102386101e8565b5b60006102478482850161020e565b91505092915050565b610259816101ed565b82525050565b60006020820190506102746000830184610250565b92915050565b600082825260208201905092915050565b7f4e6f7420696e697469616c697a65640000000000000000000000000000000000600082015250565b60006102c1600f8361027a565b91506102cc8261028b565b602082019050919050565b600060208201905081810360008301526102f0816102b4565b9050919050565b7f416c726561647920696e697469616c697a656400000000000000000000000000600082015250565b600061032d60138361027a565b9150610338826102f7565b602082019050919050565b6000602082019050818103600083015261035c81610320565b905091905056fea264697066735822122031d17b660afecd7a434015d60bb1aa7b5528fed3f2c9a86796a80b7245d280a864736f6c634300081c0033",
  "linkReferences": {},
  "deployedLinkReferences": {}
}