{
  "_format": "hh-sol-artifact-1",
  "contractName": "Switch",
  "sourceName": "Contracts/DeadManSwitch.sol",
  "abi": [
    {
      "inputs": [
        {
          "internalType": "address",
          "name": "_recipient",
          "type": "address"
        }
      ],
      "stateMutability": "payable",
      "type": "constructor"
    },
    {
      "inputs": [],
      "name": "NotOwner",
      "type": "error"
    },
    {
      "inputs": [],
      "name": "lastAction",
      "outputs": [
        {
          "internalType": "uint256",
          "name": "",
          "type": "uint256"
        }
      ],
      "stateMutability": "view",
      "type": "function"
    },
    {
      "inputs": [],
      "name": "owner",
      "outputs": [
        {
          "internalType": "address",
          "name": "",
          "type": "address"
        }
      ],
      "stateMutability": "view",
      "type": "function"
    },
    {
      "inputs": [],
      "name": "ping",
      "outputs": [],
      "stateMutability": "nonpayable",
      "type": "function"
    },
    {
      "inputs": [],
      "name": "recipient",
      "outputs": [
        {
          "internalType": "address",
          "name": "",
          "type": "address"
        }
      ],
      "stateMutability": "view",
      "type": "function"
    },
    {
      "inputs": [],
      "name": "withdraw",
      "outputs": [],
      "stateMutability": "nonpayable",
      "type": "function"
    }
  ],
  "bytecode": "0x608060405260405161052238038061052283398181016040528101906100259190610116565b80600160006101000a81548173ffffffffffffffffffffffffffffffffffffffff021916908373ffffffffffffffffffffffffffffffffffffffff160217905550336000806101000a81548173ffffffffffffffffffffffffffffffffffffffff021916908373ffffffffffffffffffffffffffffffffffffffff1602179055504260028190555050610143565b600080fd5b600073ffffffffffffffffffffffffffffffffffffffff82169050919050565b60006100e3826100b8565b9050919050565b6100f3816100d8565b81146100fe57600080fd5b50565b600081519050610110816100ea565b92915050565b60006020828403121561012c5761012b6100b3565b5b600061013a84828501610101565b91505092915050565b6103d0806101526000396000f3fe608060405234801561001057600080fd5b50600436106100575760003560e01c80633ccfd60b1461005c5780635c36b1861461006657806366d003ac1461007057806389f71d531461008e5780638da5cb5b146100ac575b600080fd5b6100646100ca565b005b61006e610183565b005b610078610211565b60405161008591906102a2565b60405180910390f35b610096610237565b6040516100a391906102d6565b60405180910390f35b6100b461023d565b6040516100c191906102a2565b60405180910390f35b6301dfe200600254426100dd9190610320565b10156100e857600080fd5b6000600160009054906101000a900473ffffffffffffffffffffffffffffffffffffffff1673ffffffffffffffffffffffffffffffffffffffff164760405161013090610385565b60006040518083038185875af1925050503d806000811461016d576040519150601f19603f3d011682016040523d82523d6000602084013e610172565b606091505b505090508061018057600080fd5b50565b60008054906101000a900473ffffffffffffffffffffffffffffffffffffffff1673ffffffffffffffffffffffffffffffffffffffff163373ffffffffffffffffffffffffffffffffffffffff1614610208576040517f30cd747100000000000000000000000000000000000000000000000000000000815260040160405180910390fd5b42600281905550565b600160009054906101000a900473ffffffffffffffffffffffffffffffffffffffff1681565b60025481565b60008054906101000a900473ffffffffffffffffffffffffffffffffffffffff1681565b600073ffffffffffffffffffffffffffffffffffffffff82169050919050565b600061028c82610261565b9050919050565b61029c81610281565b82525050565b60006020820190506102b76000830184610293565b92915050565b6000819050919050565b6102d0816102bd565b82525050565b60006020820190506102eb60008301846102c7565b92915050565b7f4e487b7100000000000000000000000000000000000000000000000000000000600052601160045260246000fd5b600061032b826102bd565b9150610336836102bd565b925082820390508181111561034e5761034d6102f1565b5b92915050565b600081905092915050565b50565b600061036f600083610354565b915061037a8261035f565b600082019050919050565b600061039082610362565b915081905091905056fea26469706673582212208450827727d0055baf750d6d996c9892dcf23b8a4e226abbe983cc2bb525bdd164736f6c634300081c0033",
  "linkReferences": {},
  "deployedLinkReferences": {}
}