{
  "_format": "hh-sol-artifact-1",
  "contractName": "MultiSig",
  "sourceName": "Contracts/MultiSig.sol",
  "abi": [
    {
      "inputs": [
        {
          "internalType": "address[]",
          "name": "_owners",
          "type": "address[]"
        },
        {
          "internalType": "uint256",
          "name": "_required",
          "type": "uint256"
        }
      ],
      "stateMutability": "nonpayable",
      "type": "constructor"
    },
    {
      "inputs": [],
      "name": "InvalidOwner",
      "type": "error"
    },
    {
      "inputs": [],
      "name": "InvalidRequirement",
      "type": "error"
    },
    {
      "inputs": [],
      "name": "NotOwner",
      "type": "error"
    },
    {
      "inputs": [],
      "name": "TxAlreadyConfirmed",
      "type": "error"
    },
    {
      "inputs": [],
      "name": "TxAlreadyExecuted",
      "type": "error"
    },
    {
      "inputs": [],
      "name": "TxDoesNotExist",
      "type": "error"
    },
    {
      "inputs": [],
      "name": "TxExecutionFailed",
      "type": "error"
    },
    {
      "inputs": [],
      "name": "TxNotConfirmed",
      "type": "error"
    },
    {
      "anonymous": false,
      "inputs": [
        {
          "indexed": true,
          "internalType": "address",
          "name": "owner",
          "type": "address"
        },
        {
          "indexed": true,
          "internalType": "uint256",
          "name": "txId",
          "type": "uint256"
        }
      ],
      "name": "Confirm",
      "type": "event"
    },
    {
      "anonymous": false,
      "inputs": [
        {
          "indexed": true,
          "internalType": "address",
          "name": "sender",
          "type": "address"
        },
        {
          "indexed": false,
          "internalType": "uint256",
          "name": "amount",
          "type": "uint256"
        }
      ],
      "name": "Deposit",
      "type": "event"
    },
    {
      "anonymous": false,
      "inputs": [
        {
          "indexed": true,
          "internalType": "uint256",
          "name": "txId",
          "type": "uint256"
        }
      ],
      "name": "Execute",
      "type": "event"
    },
    {
      "anonymous": false,
      "inputs": [
        {
          "indexed": true,
          "internalType": "address",
          "name": "owner",
          "type": "address"
        },
        {
          "indexed": true,
          "internalType": "uint256",
          "name": "txId",
          "type": "uint256"
        }
      ],
      "name": "Revoke",
      "type": "event"
    },
    {
      "anonymous": false,
      "inputs": [
        {
          "indexed": true,
          "internalType": "uint256",
          "name": "txId",
          "type": "uint256"
        }
      ],
      "name": "Submit",
      "type": "event"
    },
    {
      "inputs": [
        {
          "internalType": "uint256",
          "name": "_txId",
          "type": "uint256"
        }
      ],
      "name": "confirmTransaction",
      "outputs": [],
      "stateMutability": "nonpayable",
      "type": "function"
    },
    {
      "inputs": [
        {
          "internalType": "uint256",
          "name": "",
          "type": "uint256"
        },
        {
          "internalType": "address",
          "name": "",
          "type": "address"
        }
      ],
      "name": "confirmations",
      "outputs": [
        {
          "internalType": "bool",
          "name": "",
          "type": "bool"
        }
      ],
      "stateMutability": "view",
      "type": "function"
    },
    {
      "inputs": [
        {
          "internalType": "uint256",
          "name": "_txId",
          "type": "uint256"
        }
      ],
      "name": "executeTransaction",
      "outputs": [],
      "stateMutability": "nonpayable",
      "type": "function"
    },
    {
      "inputs": [
        {
          "internalType": "address",
          "name": "",
          "type": "address"
        }
      ],
      "name": "isOwner",
      "outputs": [
        {
          "internalType": "bool",
          "name": "",
          "type": "bool"
        }
      ],
      "stateMutability": "view",
      "type": "function"
    },
    {
      "inputs": [
        {
          "internalType": "uint256",
          "name": "",
          "type": "uint256"
        }
      ],
      "name": "owners",
      "outputs": [
        {
          "internalType": "address",
          "name": "",
          "type": "address"
        }
      ],
      "stateMutability": "view",
      "type": "function"
    },
    {
      "inputs": [],
      "name": "required",
      "outputs": [
        {
          "internalType": "uint256",
          "name": "",
          "type": "uint256"
        }
      ],
      "stateMutability": "view",
      "type": "function"
    },
    {
      "inputs": [
        {
          "internalType": "uint256",
          "name": "_txId",
          "type": "uint256"
        }
      ],
      "name": "revokeConfirmation",
      "outputs": [],
      "stateMutability": "nonpayable",
      "type": "function"
    },
    {
      "inputs": [
        {
          "internalType": "address",
          "name": "_destination",
          "type": "address"
        },
        {
          "internalType": "uint256",
          "name": "_value",
          "type": "uint256"
        },
        {
          "internalType": "bytes",
          "name": "_data",
          "type": "bytes"
        }
      ],
      "name": "submitTransaction",
      "outputs": [],
      "stateMutability": "nonpayable",
      "type": "function"
    },
    {
      "inputs": [
        {
          "internalType": "uint256",
          "name": "",
          "type": "uint256"
        }
      ],
      "name": "transactions",
      "outputs": [
        {
          "internalType": "address",
          "name": "destination",
          "type": "address"
        },
        {
          "internalType": "uint256",
          "name": "value",
          "type": "uint256"
        },
        {
          "internalType": "bytes",
          "name": "data",
          "type": "bytes"
        },
        {
          "internalType": "bool",
          "name": "executed",
          "type": "bool"
        },
        {
          "internalType": "uint256",
          "name": "numConfirmations",
          "type": "uint256"
        }
      ],
      "stateMutability": "view",
      "type": "function"
    },
    {
      "inputs": [],
      "name": "txCount",
      "outputs": [
        {
          "internalType": "uint256",
          "name": "",
          "type": "uint256"
        }
      ],
      "stateMutability": "view",
      "type": "function"
    },
    {
      "stateMutability": "payable",
      "type": "receive"
    }
  ],
  "bytecode": "0x608060405234801561001057600080fd5b50604051611bc8380380611bc883398181016040528101906100329190610471565b600082510361006d576040517f49e27cff00000000000000000000000000000000000000000000000000000000815260040160405180910390fd5b600081148061007c5750815181115b156100b3576040517f9f25e84c00000000000000000000000000000000000000000000000000000000815260040160405180910390fd5b60005b82518110156102615760008382815181106100d4576100d36104cd565b5b60200260200101519050600073ffffffffffffffffffffffffffffffffffffffff168173ffffffffffffffffffffffffffffffffffffffff1614806101625750600160008273ffffffffffffffffffffffffffffffffffffffff1673ffffffffffffffffffffffffffffffffffffffff16815260200190815260200160002060009054906101000a900460ff165b15610199576040517f49e27cff00000000000000000000000000000000000000000000000000000000815260040160405180910390fd5b60018060008373ffffffffffffffffffffffffffffffffffffffff1673ffffffffffffffffffffffffffffffffffffffff16815260200190815260200160002060006101000a81548160ff0219169083151502179055506000819080600181540180825580915050600190039060005260206000200160009091909190916101000a81548173ffffffffffffffffffffffffffffffffffffffff021916908373ffffffffffffffffffffffffffffffffffffffff1602179055505080806001019150506100b6565b508060028190555050506104fc565b6000604051905090565b600080fd5b600080fd5b600080fd5b6000601f19601f8301169050919050565b7f4e487b7100000000000000000000000000000000000000000000000000000000600052604160045260246000fd5b6102d282610289565b810181811067ffffffffffffffff821117156102f1576102f061029a565b5b80604052505050565b6000610304610270565b905061031082826102c9565b919050565b600067ffffffffffffffff8211156103305761032f61029a565b5b602082029050602081019050919050565b600080fd5b600073ffffffffffffffffffffffffffffffffffffffff82169050919050565b600061037182610346565b9050919050565b61038181610366565b811461038c57600080fd5b50565b60008151905061039e81610378565b92915050565b60006103b76103b284610315565b6102fa565b905080838252602082019050602084028301858111156103da576103d9610341565b5b835b8181101561040357806103ef888261038f565b8452602084019350506020810190506103dc565b5050509392505050565b600082601f83011261042257610421610284565b5b81516104328482602086016103a4565b91505092915050565b6000819050919050565b61044e8161043b565b811461045957600080fd5b50565b60008151905061046b81610445565b92915050565b600080604083850312156104885761048761027a565b5b600083015167ffffffffffffffff8111156104a6576104a561027f565b5b6104b28582860161040d565b92505060206104c38582860161045c565b9150509250929050565b7f4e487b7100000000000000000000000000000000000000000000000000000000600052603260045260246000fd5b6116bd8061050b6000396000f3fe6080604052600436106100955760003560e01c80639ace38c2116100595780639ace38c2146101fa578063c01a8c841461023b578063c642747414610264578063dc8452cd1461028d578063ee22610b146102b8576100ea565b8063025e7c27146100ef57806320ea8d861461012c5780632f54bf6e146101555780633411c81c146101925780633c540687146101cf576100ea565b366100ea573373ffffffffffffffffffffffffffffffffffffffff167fe1fffcc4923d04b559f4d29a8bfc6cda04eb5b0d3c460751c2402c5c5cc9109c346040516100e09190610ec9565b60405180910390a2005b600080fd5b3480156100fb57600080fd5b5061011660048036038101906101119190610f1a565b6102e1565b6040516101239190610f88565b60405180910390f35b34801561013857600080fd5b50610153600480360381019061014e9190610f1a565b610320565b005b34801561016157600080fd5b5061017c60048036038101906101779190610fcf565b6105ad565b6040516101899190611017565b60405180910390f35b34801561019e57600080fd5b506101b960048036038101906101b49190611032565b6105cd565b6040516101c69190611017565b60405180910390f35b3480156101db57600080fd5b506101e46105fc565b6040516101f19190610ec9565b60405180910390f35b34801561020657600080fd5b50610221600480360381019061021c9190610f1a565b610602565b604051610232959493929190611102565b60405180910390f35b34801561024757600080fd5b50610262600480360381019061025d9190610f1a565b6106ed565b005b34801561027057600080fd5b5061028b600480360381019061028691906111c1565b6109a6565b005b34801561029957600080fd5b506102a2610c17565b6040516102af9190610ec9565b60405180910390f35b3480156102c457600080fd5b506102df60048036038101906102da9190610f1a565b610c1d565b005b600081815481106102f157600080fd5b906000526020600020016000915054906101000a900473ffffffffffffffffffffffffffffffffffffffff1681565b600160003373ffffffffffffffffffffffffffffffffffffffff1673ffffffffffffffffffffffffffffffffffffffff16815260200190815260200160002060009054906101000a900460ff166103a3576040517f30cd747100000000000000000000000000000000000000000000000000000000815260040160405180910390fd5b8060035481106103df576040517f9e1b596f00000000000000000000000000000000000000000000000000000000815260040160405180910390fd5b816004600082815260200190815260200160002060030160009054906101000a900460ff161561043b576040517f2ea945cf00000000000000000000000000000000000000000000000000000000815260040160405180910390fd5b6005600084815260200190815260200160002060003373ffffffffffffffffffffffffffffffffffffffff1673ffffffffffffffffffffffffffffffffffffffff16815260200190815260200160002060009054906101000a900460ff166104cf576040517f33d36b7900000000000000000000000000000000000000000000000000000000815260040160405180910390fd5b60006005600085815260200190815260200160002060003373ffffffffffffffffffffffffffffffffffffffff1673ffffffffffffffffffffffffffffffffffffffff16815260200190815260200160002060006101000a81548160ff02191690831515021790555060046000848152602001908152602001600020600401600081548092919061055f90611264565b9190505550823373ffffffffffffffffffffffffffffffffffffffff167fec9ab91322523c899ede7830ec9bfc992b5981cdcc27b91162fb23de5791117b60405160405180910390a3505050565b60016020528060005260406000206000915054906101000a900460ff1681565b60056020528160005260406000206020528060005260406000206000915091509054906101000a900460ff1681565b60035481565b60046020528060005260406000206000915090508060000160009054906101000a900473ffffffffffffffffffffffffffffffffffffffff1690806001015490806002018054610651906112bc565b80601f016020809104026020016040519081016040528092919081815260200182805461067d906112bc565b80156106ca5780601f1061069f576101008083540402835291602001916106ca565b820191906000526020600020905b8154815290600101906020018083116106ad57829003601f168201915b5050505050908060030160009054906101000a900460ff16908060040154905085565b600160003373ffffffffffffffffffffffffffffffffffffffff1673ffffffffffffffffffffffffffffffffffffffff16815260200190815260200160002060009054906101000a900460ff16610770576040517f30cd747100000000000000000000000000000000000000000000000000000000815260040160405180910390fd5b8060035481106107ac576040517f9e1b596f00000000000000000000000000000000000000000000000000000000815260040160405180910390fd5b816004600082815260200190815260200160002060030160009054906101000a900460ff1615610808576040517f2ea945cf00000000000000000000000000000000000000000000000000000000815260040160405180910390fd5b826005600082815260200190815260200160002060003373ffffffffffffffffffffffffffffffffffffffff1673ffffffffffffffffffffffffffffffffffffffff16815260200190815260200160002060009054906101000a900460ff161561089e576040517f9dae146400000000000000000000000000000000000000000000000000000000815260040160405180910390fd5b60016005600086815260200190815260200160002060003373ffffffffffffffffffffffffffffffffffffffff1673ffffffffffffffffffffffffffffffffffffffff16815260200190815260200160002060006101000a81548160ff02191690831515021790555060046000858152602001908152602001600020600401600081548092919061092e906112ed565b9190505550833373ffffffffffffffffffffffffffffffffffffffff167fbde73c39e691e6143456e01935275fd9f654dacca25911f03ab0d587644377eb60405160405180910390a36002546004600086815260200190815260200160002060040154106109a05761099f84610c1d565b5b50505050565b600160003373ffffffffffffffffffffffffffffffffffffffff1673ffffffffffffffffffffffffffffffffffffffff16815260200190815260200160002060009054906101000a900460ff16610a29576040517f30cd747100000000000000000000000000000000000000000000000000000000815260040160405180910390fd5b600073ffffffffffffffffffffffffffffffffffffffff168473ffffffffffffffffffffffffffffffffffffffff1603610a8f576040517f49e27cff00000000000000000000000000000000000000000000000000000000815260040160405180910390fd5b600060035490506040518060a001604052808673ffffffffffffffffffffffffffffffffffffffff16815260200185815260200184848080601f016020809104026020016040519081016040528093929190818152602001838380828437600081840152601f19601f82011690508083019250505050505050815260200160001515815260200160008152506004600083815260200190815260200160002060008201518160000160006101000a81548173ffffffffffffffffffffffffffffffffffffffff021916908373ffffffffffffffffffffffffffffffffffffffff160217905550602082015181600101556040820151816002019081610b949190611510565b5060608201518160030160006101000a81548160ff0219169083151502179055506080820151816004015590505060036000815480929190610bd5906112ed565b9190505550807f08324b3d745b914e3abd4ffbfead91e3b78391a98c173202129215ab933adfbe60405160405180910390a2610c10816106ed565b5050505050565b60025481565b600160003373ffffffffffffffffffffffffffffffffffffffff1673ffffffffffffffffffffffffffffffffffffffff16815260200190815260200160002060009054906101000a900460ff16610ca0576040517f30cd747100000000000000000000000000000000000000000000000000000000815260040160405180910390fd5b806003548110610cdc576040517f9e1b596f00000000000000000000000000000000000000000000000000000000815260040160405180910390fd5b816004600082815260200190815260200160002060030160009054906101000a900460ff1615610d38576040517f2ea945cf00000000000000000000000000000000000000000000000000000000815260040160405180910390fd5b600060046000858152602001908152602001600020905060025481600401541015610d8f576040517f9f25e84c00000000000000000000000000000000000000000000000000000000815260040160405180910390fd5b60018160030160006101000a81548160ff02191690831515021790555060008160000160009054906101000a900473ffffffffffffffffffffffffffffffffffffffff1673ffffffffffffffffffffffffffffffffffffffff16826001015483600201604051610dff9190611670565b60006040518083038185875af1925050503d8060008114610e3c576040519150601f19603f3d011682016040523d82523d6000602084013e610e41565b606091505b5050905080610e7c576040517fcb2f2a1c00000000000000000000000000000000000000000000000000000000815260040160405180910390fd5b847fddb556f1d2c1ec821e910b019d3685b229db152a0ecd517ca7e24b8bd713928960405160405180910390a25050505050565b6000819050919050565b610ec381610eb0565b82525050565b6000602082019050610ede6000830184610eba565b92915050565b600080fd5b600080fd5b610ef781610eb0565b8114610f0257600080fd5b50565b600081359050610f1481610eee565b92915050565b600060208284031215610f3057610f2f610ee4565b5b6000610f3e84828501610f05565b91505092915050565b600073ffffffffffffffffffffffffffffffffffffffff82169050919050565b6000610f7282610f47565b9050919050565b610f8281610f67565b82525050565b6000602082019050610f9d6000830184610f79565b92915050565b610fac81610f67565b8114610fb757600080fd5b50565b600081359050610fc981610fa3565b92915050565b600060208284031215610fe557610fe4610ee4565b5b6000610ff384828501610fba565b91505092915050565b60008115159050919050565b61101181610ffc565b82525050565b600060208201905061102c6000830184611008565b92915050565b6000806040838503121561104957611048610ee4565b5b600061105785828601610f05565b925050602061106885828601610fba565b9150509250929050565b600081519050919050565b600082825260208201905092915050565b60005b838110156110ac578082015181840152602081019050611091565b60008484015250505050565b6000601f19601f8301169050919050565b60006110d482611072565b6110de818561107d565b93506110ee81856020860161108e565b6110f7816110b8565b840191505092915050565b600060a0820190506111176000830188610f79565b6111246020830187610eba565b818103604083015261113681866110c9565b90506111456060830185611008565b6111526080830184610eba565b9695505050505050565b600080fd5b600080fd5b600080fd5b60008083601f8401126111815761118061115c565b5b8235905067ffffffffffffffff81111561119e5761119d611161565b5b6020830191508360018202830111156111ba576111b9611166565b5b9250929050565b600080600080606085870312156111db576111da610ee4565b5b60006111e987828801610fba565b94505060206111fa87828801610f05565b935050604085013567ffffffffffffffff81111561121b5761121a610ee9565b5b6112278782880161116b565b925092505092959194509250565b7f4e487b7100000000000000000000000000000000000000000000000000000000600052601160045260246000fd5b600061126f82610eb0565b91506000820361128257611281611235565b5b600182039050919050565b7f4e487b7100000000000000000000000000000000000000000000000000000000600052602260045260246000fd5b600060028204905060018216806112d457607f821691505b6020821081036112e7576112e661128d565b5b50919050565b60006112f882610eb0565b91507fffffffffffffffffffffffffffffffffffffffffffffffffffffffffffffffff820361132a57611329611235565b5b600182019050919050565b7f4e487b7100000000000000000000000000000000000000000000000000000000600052604160045260246000fd5b60008190508160005260206000209050919050565b60006020601f8301049050919050565b600082821b905092915050565b6000600883026113c67fffffffffffffffffffffffffffffffffffffffffffffffffffffffffffffffff82611389565b6113d08683611389565b95508019841693508086168417925050509392505050565b6000819050919050565b600061140d61140861140384610eb0565b6113e8565b610eb0565b9050919050565b6000819050919050565b611427836113f2565b61143b61143382611414565b848454611396565b825550505050565b600090565b611450611443565b61145b81848461141e565b505050565b5b8181101561147f57611474600082611448565b600181019050611461565b5050565b601f8211156114c45761149581611364565b61149e84611379565b810160208510156114ad578190505b6114c16114b985611379565b830182611460565b50505b505050565b600082821c905092915050565b60006114e7600019846008026114c9565b1980831691505092915050565b600061150083836114d6565b9150826002028217905092915050565b61151982611072565b67ffffffffffffffff81111561153257611531611335565b5b61153c82546112bc565b611547828285611483565b600060209050601f83116001811461157a5760008415611568578287015190505b61157285826114f4565b8655506115da565b601f19841661158886611364565b60005b828110156115b05784890151825560018201915060208501945060208101905061158b565b868310156115cd57848901516115c9601f8916826114d6565b8355505b6001600288020188555050505b505050505050565b600081905092915050565b600081546115fa816112bc565b61160481866115e2565b9450600182166000811461161f576001811461163457611667565b60ff1983168652811515820286019350611667565b61163d85611364565b60005b8381101561165f57815481890152600182019150602081019050611640565b838801955050505b50505092915050565b600061167c82846115ed565b91508190509291505056fea26469706673582212206ab5b1f4c01abae95c4ca5383b418ba0bb76ff49176ed4004eafe292a371742164736f6c634300081c0033",
  "linkReferences": {},
  "deployedLinkReferences": {}
}