{
  "_format": "hh-sol-artifact-1",
  "contractName": "Bank",
  "sourceName": "Contracts/Bank.sol",
  "abi": [
    {
      "inputs": [],
      "stateMutability": "nonpayable",
      "type": "constructor"
    },
    {
      "inputs": [
        {
          "internalType": "uint256",
          "name": "available",
          "type": "uint256"
        },
        {
          "internalType": "uint256",
          "name": "required",
          "type": "uint256"
        }
      ],
      "name": "InsufficientBalance",
      "type": "error"
    },
    {
      "inputs": [],
      "name": "NotOwner",
      "type": "error"
    },
    {
      "inputs": [
        {
          "internalType": "address",
          "name": "user",
          "type": "address"
        }
      ],
      "name": "balanceOf",
      "outputs": [
        {
          "internalType": "uint256",
          "name": "",
          "type": "uint256"
        }
      ],
      "stateMutability": "view",
      "type": "function"
    },
    {
      "inputs": [],
      "name": "deposit",
      "outputs": [],
      "stateMutability": "payable",
      "type": "function"
    },
    {
      "inputs": [],
      "name": "emergencyWithdraw",
      "outputs": [],
      "stateMutability": "nonpayable",
      "type": "function"
    },
    {
      "inputs": [],
      "name": "owner",
      "outputs": [
        {
          "internalType": "address",
          "name": "",
          "type": "address"
        }
      ],
      "stateMutability": "view",
      "type": "function"
    },
    {
      "inputs": [
        {
          "internalType": "uint256",
          "name": "amount",
          "type": "uint256"
        }
      ],
      "name": "withdraw",
      "outputs": [],
      "stateMutability": "nonpayable",
      "type": "function"
    }
  ],
  "bytecode": "0x6080604052348015600f57600080fd5b50336000806101000a81548173ffffffffffffffffffffffffffffffffffffffff021916908373ffffffffffffffffffffffffffffffffffffffff1602179055506106dd8061005f6000396000f3fe60806040526004361061004a5760003560e01c80632e1a7d4d1461004f57806370a08231146100785780638da5cb5b146100b5578063d0e30db0146100e0578063db2e21bc146100ea575b600080fd5b34801561005b57600080fd5b506100766004803603810190610071919061045e565b610101565b005b34801561008457600080fd5b5061009f600480360381019061009a91906104e9565b61022d565b6040516100ac9190610525565b60405180910390f35b3480156100c157600080fd5b506100ca610276565b6040516100d7919061054f565b60405180910390f35b6100e861029a565b005b3480156100f657600080fd5b506100ff610335565b005b6000600160003373ffffffffffffffffffffffffffffffffffffffff1673ffffffffffffffffffffffffffffffffffffffff1681526020019081526020016000205490508181101561018c5780826040517fcf47918100000000000000000000000000000000000000000000000000000000815260040161018392919061056a565b60405180910390fd5b81600160003373ffffffffffffffffffffffffffffffffffffffff1673ffffffffffffffffffffffffffffffffffffffff16815260200190815260200160002060008282546101db91906105c2565b925050819055503373ffffffffffffffffffffffffffffffffffffffff166108fc839081150290604051600060405180830381858888f19350505050158015610228573d6000803e3d6000fd5b505050565b6000600160008373ffffffffffffffffffffffffffffffffffffffff1673ffffffffffffffffffffffffffffffffffffffff168152602001908152602001600020549050919050565b60008054906101000a900473ffffffffffffffffffffffffffffffffffffffff1681565b600034116102dd576040517f08c379a00000000000000000000000000000000000000000000000000000000081526004016102d490610653565b60405180910390fd5b34600160003373ffffffffffffffffffffffffffffffffffffffff1673ffffffffffffffffffffffffffffffffffffffff168152602001908152602001600020600082825461032c9190610673565b92505081905550565b60008054906101000a900473ffffffffffffffffffffffffffffffffffffffff1673ffffffffffffffffffffffffffffffffffffffff163373ffffffffffffffffffffffffffffffffffffffff16146103ba576040517f30cd747100000000000000000000000000000000000000000000000000000000815260040160405180910390fd5b60008054906101000a900473ffffffffffffffffffffffffffffffffffffffff1673ffffffffffffffffffffffffffffffffffffffff166108fc479081150290604051600060405180830381858888f19350505050158015610420573d6000803e3d6000fd5b50565b600080fd5b6000819050919050565b61043b81610428565b811461044657600080fd5b50565b60008135905061045881610432565b92915050565b60006020828403121561047457610473610423565b5b600061048284828501610449565b91505092915050565b600073ffffffffffffffffffffffffffffffffffffffff82169050919050565b60006104b68261048b565b9050919050565b6104c6816104ab565b81146104d157600080fd5b50565b6000813590506104e3816104bd565b92915050565b6000602082840312156104ff576104fe610423565b5b600061050d848285016104d4565b91505092915050565b61051f81610428565b82525050565b600060208201905061053a6000830184610516565b92915050565b610549816104ab565b82525050565b60006020820190506105646000830184610540565b92915050565b600060408201905061057f6000830185610516565b61058c6020830184610516565b9392505050565b7f4e487b7100000000000000000000000000000000000000000000000000000000600052601160045260246000fd5b60006105cd82610428565b91506105d883610428565b92508282039050818111156105f0576105ef610593565b5b92915050565b600082825260208201905092915050565b7f5a65726f206465706f7369740000000000000000000000000000000000000000600082015250565b600061063d600c836105f6565b915061064882610607565b602082019050919050565b6000602082019050818103600083015261066c81610630565b9050919050565b600061067e82610428565b915061068983610428565b92508282019050808211156106a1576106a0610593565b5b9291505056fea264697066735822122003c5ebcdf83e6e60f5feb5b13da5c72c9dcfee1eb50ff9457cd1071fb2750b9264736f6c634300081c0033",
  "linkReferences": {},
  "deployedLinkReferences": {}
}