{
  "_format": "hh-sol-artifact-1",
  "contractName": "Party",
  "sourceName": "Contracts/PartySplit.sol",
  "abi": [
    {
      "inputs": [
        {
          "internalType": "uint256",
          "name": "_deposit",
          "type": "uint256"
        }
      ],
      "stateMutability": "nonpayable",
      "type": "constructor"
    },
    {
      "inputs": [],
      "name": "deposit",
      "outputs": [
        {
          "internalType": "uint256",
          "name": "",
          "type": "uint256"
        }
      ],
      "stateMutability": "view",
      "type": "function"
    },
    {
      "inputs": [
        {
          "internalType": "address",
          "name": "",
          "type": "address"
        }
      ],
      "name": "hasRSVPed",
      "outputs": [
        {
          "internalType": "bool",
          "name": "",
          "type": "bool"
        }
      ],
      "stateMutability": "view",
      "type": "function"
    },
    {
      "inputs": [
        {
          "internalType": "uint256",
          "name": "",
          "type": "uint256"
        }
      ],
      "name": "members",
      "outputs": [
        {
          "internalType": "address",
          "name": "",
          "type": "address"
        }
      ],
      "stateMutability": "view",
      "type": "function"
    },
    {
      "inputs": [
        {
          "internalType": "address",
          "name": "venue",
          "type": "address"
        },
        {
          "internalType": "uint256",
          "name": "amount",
          "type": "uint256"
        }
      ],
      "name": "payBill",
      "outputs": [],
      "stateMutability": "nonpayable",
      "type": "function"
    },
    {
      "inputs": [],
      "name": "rsvp",
      "outputs": [],
      "stateMutability": "payable",
      "type": "function"
    }
  ],
  "bytecode": "0x6080604052348015600f57600080fd5b506040516108d53803806108d58339818101604052810190602f91906071565b80600181905550506099565b600080fd5b6000819050919050565b6051816040565b8114605b57600080fd5b50565b600081519050606b81604a565b92915050565b6000602082840312156084576083603b565b5b6000609084828501605e565b91505092915050565b61082d806100a86000396000f3fe60806040526004361061004a5760003560e01c8063228a59271461004f57806322934487146100595780632af0e94e146100825780635daf08ca146100bf578063d0e30db0146100fc575b600080fd5b610057610127565b005b34801561006557600080fd5b50610080600480360381019061007b9190610515565b6102b5565b005b34801561008e57600080fd5b506100a960048036038101906100a49190610555565b610417565b6040516100b6919061059d565b60405180910390f35b3480156100cb57600080fd5b506100e660048036038101906100e191906105b8565b610437565b6040516100f391906105f4565b60405180910390f35b34801561010857600080fd5b50610111610476565b60405161011e919061061e565b60405180910390f35b600154341461016b576040517f08c379a000000000000000000000000000000000000000000000000000000000815260040161016290610696565b60405180910390fd5b600260003373ffffffffffffffffffffffffffffffffffffffff1673ffffffffffffffffffffffffffffffffffffffff16815260200190815260200160002060009054906101000a900460ff16156101f8576040517f08c379a00000000000000000000000000000000000000000000000000000000081526004016101ef90610702565b60405180910390fd5b6001600260003373ffffffffffffffffffffffffffffffffffffffff1673ffffffffffffffffffffffffffffffffffffffff16815260200190815260200160002060006101000a81548160ff0219169083151502179055506000339080600181540180825580915050600190039060005260206000200160009091909190916101000a81548173ffffffffffffffffffffffffffffffffffffffff021916908373ffffffffffffffffffffffffffffffffffffffff160217905550565b60008273ffffffffffffffffffffffffffffffffffffffff16826040516102db90610753565b60006040518083038185875af1925050503d8060008114610318576040519150601f19603f3d011682016040523d82523d6000602084013e61031d565b606091505b505090508061032b57600080fd5b600080805490504761033d9190610797565b905060005b600080549050811015610410576000808281548110610364576103636107c8565b5b9060005260206000200160009054906101000a900473ffffffffffffffffffffffffffffffffffffffff1673ffffffffffffffffffffffffffffffffffffffff16836040516103b290610753565b60006040518083038185875af1925050503d80600081146103ef576040519150601f19603f3d011682016040523d82523d6000602084013e6103f4565b606091505b505090508061040257600080fd5b508080600101915050610342565b5050505050565b60026020528060005260406000206000915054906101000a900460ff1681565b6000818154811061044757600080fd5b906000526020600020016000915054906101000a900473ffffffffffffffffffffffffffffffffffffffff1681565b60015481565b600080fd5b600073ffffffffffffffffffffffffffffffffffffffff82169050919050565b60006104ac82610481565b9050919050565b6104bc816104a1565b81146104c757600080fd5b50565b6000813590506104d9816104b3565b92915050565b6000819050919050565b6104f2816104df565b81146104fd57600080fd5b50565b60008135905061050f816104e9565b92915050565b6000806040838503121561052c5761052b61047c565b5b600061053a858286016104ca565b925050602061054b85828601610500565b9150509250929050565b60006020828403121561056b5761056a61047c565b5b6000610579848285016104ca565b91505092915050565b60008115159050919050565b61059781610582565b82525050565b60006020820190506105b2600083018461058e565b92915050565b6000602082840312156105ce576105cd61047c565b5b60006105dc84828501610500565b91505092915050565b6105ee816104a1565b82525050565b600060208201905061060960008301846105e5565b92915050565b610618816104df565b82525050565b6000602082019050610633600083018461060f565b92915050565b600082825260208201905092915050565b7f496e636f7272656374206465706f73697420616d6f756e740000000000000000600082015250565b6000610680601883610639565b915061068b8261064a565b602082019050919050565b600060208201905081810360008301526106af81610673565b9050919050565b7f416c726561647920525356502764000000000000000000000000000000000000600082015250565b60006106ec600e83610639565b91506106f7826106b6565b602082019050919050565b6000602082019050818103600083015261071b816106df565b9050919050565b600081905092915050565b50565b600061073d600083610722565b91506107488261072d565b600082019050919050565b600061075e82610730565b9150819050919050565b7f4e487b7100000000000000000000000000000000000000000000000000000000600052601260045260246000fd5b60006107a2826104df565b91506107ad836104df565b9250826107bd576107bc610768565b5b828204905092915050565b7f4e487b7100000000000000000000000000000000000000000000000000000000600052603260045260246000fdfea264697066735822122055efc250789fb241683b58d7aa8f43f05eb2b3c33c05b24f45b4f25d748eef9764736f6c634300081c0033",
  "linkReferences": {},
  "deployedLinkReferences": {}
}